:0F0039007F107E27120048C2B2D2B37F107E27FD
:0B004800EF1FAC0670011E4C70F6228A
:10006C00C2B2C2B3120039D2B2120042D2B2C2B37F
:07007C007F107E27020048FF
:10005300D2B2C2B3120044D2B2D2B3120039C2B286
:09006300C2B37F107E27020048A1
:1000030030CC09D2B012006CC2B080F430B1FD30F4
:10001300CC09D2B012006CC2B080F430CD09D2B09A
:10002300120053C2B080F412004430CCDFD2B012BD
:06003300006CC2B080F475
:0300000002008378
:0C008300787FE4F6D8FD758107020003C9
:00000001FF
